{
  "contractName": "CryptoFranc",
  "abi": [
    {
      "constant": false,
      "inputs": [
        {
          "name": "_toContract",
          "type": "address"
        }
      ],
      "name": "startMigrateToContract",
      "outputs": [],
      "payable": false,
      "stateMutability": "nonpayable",
      "type": "function"
    },
    {
      "constant": true,
      "inputs": [],
      "name": "name",
      "outputs": [
        {
          "name": "",
          "type": "string"
        }
      ],
      "payable": false,
      "stateMutability": "view",
      "type": "function"
    },
    {
      "constant": true,
      "inputs": [],
      "name": "minter",
      "outputs": [
        {
          "name": "",
          "type": "address"
        }
      ],
      "payable": false,
      "stateMutability": "view",
      "type": "function"
    },
    {
      "constant": false,
      "inputs": [
        {
          "name": "_spender",
          "type": "address"
        },
        {
          "name": "_value",
          "type": "uint256"
        }
      ],
      "name": "approve",
      "outputs": [
        {
          "name": "success",
          "type": "bool"
        }
      ],
      "payable": false,
      "stateMutability": "nonpayable",
      "type": "function"
    },
    {
      "constant": true,
      "inputs": [],
      "name": "totalSupply",
      "outputs": [
        {
          "name": "supply",
          "type": "uint256"
        }
      ],
      "payable": false,
      "stateMutability": "view",
      "type": "function"
    },
    {
      "constant": true,
      "inputs": [],
      "name": "dustAmount",
      "outputs": [
        {
          "name": "",
          "type": "uint256"
        }
      ],
      "payable": false,
      "stateMutability": "view",
      "type": "function"
    },
    {
      "constant": false,
      "inputs": [
        {
          "name": "_from",
          "type": "address"
        },
        {
          "name": "_to",
          "type": "address"
        },
        {
          "name": "_value",
          "type": "uint256"
        }
      ],
      "name": "transferFrom",
      "outputs": [
        {
          "name": "success",
          "type": "bool"
        }
      ],
      "payable": false,
      "stateMutability": "nonpayable",
      "type": "function"
    },
    {
      "constant": true,
      "inputs": [],
      "name": "currentTermEndDate",
      "outputs": [
        {
          "name": "",
          "type": "uint256"
        }
      ],
      "payable": false,
      "stateMutability": "view",
      "type": "function"
    },
    {
      "constant": false,
      "inputs": [
        {
          "name": "_newOperator",
          "type": "address"
        }
      ],
      "name": "transferOperator",
      "outputs": [],
      "payable": false,
      "stateMutability": "nonpayable",
      "type": "function"
    },
    {
      "constant": true,
      "inputs": [],
      "name": "decimals",
      "outputs": [
        {
          "name": "",
          "type": "uint256"
        }
      ],
      "payable": false,
      "stateMutability": "view",
      "type": "function"
    },
    {
      "constant": false,
      "inputs": [],
      "name": "unpause",
      "outputs": [],
      "payable": false,
      "stateMutability": "nonpayable",
      "type": "function"
    },
    {
      "constant": false,
      "inputs": [
        {
          "name": "_to",
          "type": "address"
        },
        {
          "name": "_value",
          "type": "uint256"
        }
      ],
      "name": "mint",
      "outputs": [],
      "payable": false,
      "stateMutability": "nonpayable",
      "type": "function"
    },
    {
      "constant": false,
      "inputs": [
        {
          "name": "_value",
          "type": "uint256"
        }
      ],
      "name": "burn",
      "outputs": [],
      "payable": false,
      "stateMutability": "nonpayable",
      "type": "function"
    },
    {
      "constant": true,
      "inputs": [],
      "name": "version",
      "outputs": [
        {
          "name": "",
          "type": "string"
        }
      ],
      "payable": false,
      "stateMutability": "view",
      "type": "function"
    },
    {
      "constant": true,
      "inputs": [],
      "name": "operator",
      "outputs": [
        {
          "name": "",
          "type": "address"
        }
      ],
      "payable": false,
      "stateMutability": "view",
      "type": "function"
    },
    {
      "constant": true,
      "inputs": [],
      "name": "paused",
      "outputs": [
        {
          "name": "",
          "type": "bool"
        }
      ],
      "payable": false,
      "stateMutability": "view",
      "type": "function"
    },
    {
      "constant": true,
      "inputs": [],
      "name": "currentFullName",
      "outputs": [
        {
          "name": "",
          "type": "string"
        }
      ],
      "payable": false,
      "stateMutability": "view",
      "type": "function"
    },
    {
      "constant": true,
      "inputs": [],
      "name": "announcedTerms",
      "outputs": [
        {
          "name": "",
          "type": "address"
        }
      ],
      "payable": false,
      "stateMutability": "view",
      "type": "function"
    },
    {
      "constant": false,
      "inputs": [],
      "name": "acceptOwnership",
      "outputs": [],
      "payable": false,
      "stateMutability": "nonpayable",
      "type": "function"
    },
    {
      "constant": false,
      "inputs": [],
      "name": "pause",
      "outputs": [],
      "payable": false,
      "stateMutability": "nonpayable",
      "type": "function"
    },
    {
      "constant": true,
      "inputs": [],
      "name": "migrationFromContract",
      "outputs": [
        {
          "name": "",
          "type": "address"
        }
      ],
      "payable": false,
      "stateMutability": "view",
      "type": "function"
    },
    {
      "constant": true,
      "inputs": [],
      "name": "owner",
      "outputs": [
        {
          "name": "",
          "type": "address"
        }
      ],
      "payable": false,
      "stateMutability": "view",
      "type": "function"
    },
    {
      "constant": true,
      "inputs": [],
      "name": "SCALEFACTOR",
      "outputs": [
        {
          "name": "",
          "type": "uint256"
        }
      ],
      "payable": false,
      "stateMutability": "view",
      "type": "function"
    },
    {
      "constant": true,
      "inputs": [],
      "name": "symbol",
      "outputs": [
        {
          "name": "",
          "type": "string"
        }
      ],
      "payable": false,
      "stateMutability": "view",
      "type": "function"
    },
    {
      "constant": true,
      "inputs": [],
      "name": "announcedTermEndDate",
      "outputs": [
        {
          "name": "",
          "type": "uint256"
        }
      ],
      "payable": false,
      "stateMutability": "view",
      "type": "function"
    },
    {
      "constant": true,
      "inputs": [],
      "name": "getCurrentCompoundingLevel",
      "outputs": [
        {
          "name": "",
          "type": "uint256"
        }
      ],
      "payable": false,
      "stateMutability": "view",
      "type": "function"
    },
    {
      "constant": false,
      "inputs": [
        {
          "name": "_to",
          "type": "address"
        },
        {
          "name": "_value",
          "type": "uint256"
        }
      ],
      "name": "transfer",
      "outputs": [
        {
          "name": "success",
          "type": "bool"
        }
      ],
      "payable": false,
      "stateMutability": "nonpayable",
      "type": "function"
    },
    {
      "constant": true,
      "inputs": [],
      "name": "announcedFullName",
      "outputs": [
        {
          "name": "",
          "type": "string"
        }
      ],
      "payable": false,
      "stateMutability": "view",
      "type": "function"
    },
    {
      "constant": true,
      "inputs": [],
      "name": "currentMaturityDate",
      "outputs": [
        {
          "name": "",
          "type": "uint256"
        }
      ],
      "payable": false,
      "stateMutability": "view",
      "type": "function"
    },
    {
      "constant": true,
      "inputs": [],
      "name": "newOwner",
      "outputs": [
        {
          "name": "",
          "type": "address"
        }
      ],
      "payable": false,
      "stateMutability": "view",
      "type": "function"
    },
    {
      "constant": false,
      "inputs": [
        {
          "name": "_fromConstract",
          "type": "address"
        }
      ],
      "name": "startMigrateFromContract",
      "outputs": [],
      "payable": false,
      "stateMutability": "nonpayable",
      "type": "function"
    },
    {
      "constant": true,
      "inputs": [],
      "name": "currentTerms",
      "outputs": [
        {
          "name": "",
          "type": "address"
        }
      ],
      "payable": false,
      "stateMutability": "view",
      "type": "function"
    },
    {
      "constant": true,
      "inputs": [
        {
          "name": "_owner",
          "type": "address"
        },
        {
          "name": "_spender",
          "type": "address"
        }
      ],
      "name": "allowance",
      "outputs": [
        {
          "name": "",
          "type": "uint256"
        }
      ],
      "payable": false,
      "stateMutability": "view",
      "type": "function"
    },
    {
      "constant": true,
      "inputs": [],
      "name": "isMigrationAgent",
      "outputs": [
        {
          "name": "",
          "type": "bool"
        }
      ],
      "payable": false,
      "stateMutability": "pure",
      "type": "function"
    },
    {
      "constant": true,
      "inputs": [],
      "name": "announcedMaturityDate",
      "outputs": [
        {
          "name": "",
          "type": "uint256"
        }
      ],
      "payable": false,
      "stateMutability": "view",
      "type": "function"
    },
    {
      "constant": true,
      "inputs": [
        {
          "name": "",
          "type": "uint256"
        }
      ],
      "name": "getCompoundingLevelDate",
      "outputs": [
        {
          "name": "",
          "type": "uint256"
        }
      ],
      "payable": false,
      "stateMutability": "view",
      "type": "function"
    },
    {
      "constant": true,
      "inputs": [],
      "name": "migrationToContract",
      "outputs": [
        {
          "name": "",
          "type": "address"
        }
      ],
      "payable": false,
      "stateMutability": "view",
      "type": "function"
    },
    {
      "constant": false,
      "inputs": [
        {
          "name": "_newOwner",
          "type": "address"
        }
      ],
      "name": "transferOwnership",
      "outputs": [],
      "payable": false,
      "stateMutability": "nonpayable",
      "type": "function"
    },
    {
      "constant": false,
      "inputs": [
        {
          "name": "_newMinter",
          "type": "address"
        }
      ],
      "name": "transferMinter",
      "outputs": [],
      "payable": false,
      "stateMutability": "nonpayable",
      "type": "function"
    },
    {
      "inputs": [
        {
          "name": "_initialFullName",
          "type": "string"
        },
        {
          "name": "_dustAmount",
          "type": "uint256"
        }
      ],
      "payable": false,
      "stateMutability": "nonpayable",
      "type": "constructor"
    },
    {
      "anonymous": false,
      "inputs": [
        {
          "indexed": false,
          "name": "newName",
          "type": "string"
        },
        {
          "indexed": true,
          "name": "newTerms",
          "type": "address"
        },
        {
          "indexed": true,
          "name": "newMaturityDate",
          "type": "uint256"
        },
        {
          "indexed": true,
          "name": "newTermEndDate",
          "type": "uint256"
        }
      ],
      "name": "AnnounceRollover",
      "type": "event"
    },
    {
      "anonymous": false,
      "inputs": [
        {
          "indexed": true,
          "name": "from",
          "type": "address"
        },
        {
          "indexed": true,
          "name": "to",
          "type": "address"
        }
      ],
      "name": "TransferOperator",
      "type": "event"
    },
    {
      "anonymous": false,
      "inputs": [
        {
          "indexed": true,
          "name": "fromConstract",
          "type": "address"
        },
        {
          "indexed": true,
          "name": "toContract",
          "type": "address"
        }
      ],
      "name": "StartMigrateToContract",
      "type": "event"
    },
    {
      "anonymous": false,
      "inputs": [
        {
          "indexed": true,
          "name": "fromConstract",
          "type": "address"
        },
        {
          "indexed": true,
          "name": "toContract",
          "type": "address"
        }
      ],
      "name": "StartMigrateFromContract",
      "type": "event"
    },
    {
      "anonymous": false,
      "inputs": [
        {
          "indexed": true,
          "name": "owner",
          "type": "address"
        },
        {
          "indexed": true,
          "name": "_contract",
          "type": "address"
        },
        {
          "indexed": false,
          "name": "value",
          "type": "uint256"
        }
      ],
      "name": "MigratedTo",
      "type": "event"
    },
    {
      "anonymous": false,
      "inputs": [
        {
          "indexed": true,
          "name": "owner",
          "type": "address"
        },
        {
          "indexed": true,
          "name": "_contract",
          "type": "address"
        },
        {
          "indexed": false,
          "name": "value",
          "type": "uint256"
        }
      ],
      "name": "MigratedFrom",
      "type": "event"
    },
    {
      "anonymous": false,
      "inputs": [
        {
          "indexed": true,
          "name": "from",
          "type": "address"
        },
        {
          "indexed": true,
          "name": "to",
          "type": "address"
        }
      ],
      "name": "TransferMinter",
      "type": "event"
    },
    {
      "anonymous": false,
      "inputs": [],
      "name": "Pause",
      "type": "event"
    },
    {
      "anonymous": false,
      "inputs": [],
      "name": "Unpause",
      "type": "event"
    },
    {
      "anonymous": false,
      "inputs": [
        {
          "indexed": true,
          "name": "_from",
          "type": "address"
        },
        {
          "indexed": true,
          "name": "_to",
          "type": "address"
        },
        {
          "indexed": false,
          "name": "_value",
          "type": "uint256"
        }
      ],
      "name": "Transfer",
      "type": "event"
    },
    {
      "anonymous": false,
      "inputs": [
        {
          "indexed": true,
          "name": "_owner",
          "type": "address"
        },
        {
          "indexed": true,
          "name": "_spender",
          "type": "address"
        },
        {
          "indexed": false,
          "name": "_value",
          "type": "uint256"
        }
      ],
      "name": "Approval",
      "type": "event"
    },
    {
      "anonymous": false,
      "inputs": [
        {
          "indexed": true,
          "name": "previousOwner",
          "type": "address"
        },
        {
          "indexed": true,
          "name": "newOwner",
          "type": "address"
        }
      ],
      "name": "OwnershipTransferred",
      "type": "event"
    },
    {
      "constant": false,
      "inputs": [
        {
          "name": "_newName",
          "type": "string"
        },
        {
          "name": "_newTerms",
          "type": "address"
        },
        {
          "name": "_newMaturityDate",
          "type": "uint256"
        },
        {
          "name": "_newTermEndDate",
          "type": "uint256"
        }
      ],
      "name": "announceRollover",
      "outputs": [],
      "payable": false,
      "stateMutability": "nonpayable",
      "type": "function"
    },
    {
      "constant": false,
      "inputs": [
        {
          "name": "_owner",
          "type": "address"
        }
      ],
      "name": "collectInterest",
      "outputs": [],
      "payable": false,
      "stateMutability": "nonpayable",
      "type": "function"
    },
    {
      "constant": false,
      "inputs": [
        {
          "name": "_from",
          "type": "address"
        },
        {
          "name": "_value",
          "type": "uint256"
        }
      ],
      "name": "migrateFrom",
      "outputs": [
        {
          "name": "",
          "type": "bool"
        }
      ],
      "payable": false,
      "stateMutability": "nonpayable",
      "type": "function"
    },
    {
      "constant": false,
      "inputs": [],
      "name": "migrate",
      "outputs": [],
      "payable": false,
      "stateMutability": "nonpayable",
      "type": "function"
    },
    {
      "constant": false,
      "inputs": [
        {
          "name": "_tokenaddress",
          "type": "address"
        },
        {
          "name": "_to",
          "type": "address"
        }
      ],
      "name": "refundForeignTokens",
      "outputs": [],
      "payable": false,
      "stateMutability": "nonpayable",
      "type": "function"
    },
    {
      "constant": true,
      "inputs": [],
      "name": "getFullName",
      "outputs": [
        {
          "name": "",
          "type": "string"
        }
      ],
      "payable": false,
      "stateMutability": "view",
      "type": "function"
    },
    {
      "constant": true,
      "inputs": [
        {
          "name": "_owner",
          "type": "address"
        }
      ],
      "name": "getCompoundingLevel",
      "outputs": [
        {
          "name": "",
          "type": "uint256"
        }
      ],
      "payable": false,
      "stateMutability": "view",
      "type": "function"
    },
    {
      "constant": true,
      "inputs": [
        {
          "name": "_owner",
          "type": "address"
        }
      ],
      "name": "balanceOf",
      "outputs": [
        {
          "name": "",
          "type": "uint256"
        }
      ],
      "payable": false,
      "stateMutability": "view",
      "type": "function"
    },
    {
      "constant": true,
      "inputs": [
        {
          "name": "_owner",
          "type": "address"
        },
        {
          "name": "_date",
          "type": "uint256"
        }
      ],
      "name": "getAdjustedValueDate",
      "outputs": [
        {
          "name": "",
          "type": "uint256"
        }
      ],
      "payable": false,
      "stateMutability": "view",
      "type": "function"
    }
  ],
  "bytecode": "0x60806040526000600460006101000a81548160ff0219169083151502179055503480156200002c57600080fd5b5060405162004cb338038062004cb38339810180604052810190808051820192919060200180519060200190929190505050336000806101000a81548173ffffffffffffffffffffffffffffffffffffffff021916908373ffffffffffffffffffffffffffffffffffffffff16021790555033600460016101000a81548173ffffffffffffffffffffffffffffffffffffffff021916908373ffffffffffffffffffffffffffffffffffffffff16021790555033600960006101000a81548173ffffffffffffffffffffffffffffffffffffffff021916908373ffffffffffffffffffffffffffffffffffffffff16021790555081600b908051906020019062000138929190620001f1565b5081600c908051906020019062000151929190620001f1565b5080600a8190555030601160006101000a81548173ffffffffffffffffffffffffffffffffffffffff021916908373ffffffffffffffffffffffffffffffffffffffff16021790555030601260006101000a81548173ffffffffffffffffffffffffffffffffffffffff021916908373ffffffffffffffffffffffffffffffffffffffff16021790555042600e81905550426010819055505050620002a0565b828054600181600116156101000203166002900490600052602060002090601f016020900481019282601f106200023457805160ff191683800117855562000265565b8280016001018555821562000265579182015b828111156200026457825182559160200191906001019062000247565b5b50905062000274919062000278565b5090565b6200029d91905b80821115620002995760008160009055506001016200027f565b5090565b90565b614a0380620002b06000396000f300608060405260043610610245576000357c0100000000000000000000000000000000000000000000000000000000900463ffffffff1680620b64251461024a57806306fdde031461028d578063075461721461031d578063095ea7b31461037457806318160ddd146103d9578063210189681461040457806323b872dd1461042f57806325b2d9ce146104b457806329605e77146104df578063313ce567146105225780633f4ba83a1461054d57806340c10f191461056457806342966c68146105b15780635391f98b146105de57806354fd4d501461063f578063570ca735146106cf5780635c975abb1461072657806361c9d81c146107555780636f2d4a951461079857806370a08231146107ef57806372e2556a1461084657806377ce9c90146108d657806379ba50971461092d5780637a3130e3146109445780638456cb59146109a95780638c160186146109c05780638d0e290914610a505780638da5cb5b14610aa75780638f803d3314610afe5780638fd3ab8014610b615780639395b0bd14610b7857806395d89b4114610ba357806398a9d9d214610c33578063a1d1fe5d14610c5e578063a9059cbb14610c89578063b132677a14610cee578063b5e1083b14610d7e578063bc762b6214610da9578063d4ee1d9014610e46578063d66ef1b414610e9d578063db69210914610ee0578063dd62ed3e14610f37578063df4bcf5814610fae578063dfc45b9814610fdd578063e7f0edca14611008578063ee5554d314611049578063f2fde38b146110a0578063fe99ad5a146110e3575b600080fd5b34801561025657600080fd5b5061028b600480360381019080803573ffffffffffffffffffffffffffffffffffffffff169060200190929190505050611126565b005b34801561029957600080fd5b506102a26113bd565b6040518080602001828103825283818151815260200191508051906020019080838360005b838110156102e25780820151818401526020810190506102c7565b50505050905090810190601f16801561030f5780820380516001836020036101000a031916815260200191505b509250505060405180910390f35b34801561032957600080fd5b506103326113f6565b604051808273ffffffffffffffffffffffffffffffffffffffff1673ffffffffffffffffffffffffffffffffffffffff16815260200191505060405180910390f35b34801561038057600080fd5b506103bf600480360381019080803573ffffffffffffffffffffffffffffffffffffffff1690602001909291908035906020019092919050505061141c565b604051808215151515815260200191505060405180910390f35b3480156103e557600080fd5b506103ee6114b5565b6040518082815260200191505060405180910390f35b34801561041057600080fd5b506104196114d3565b6040518082815260200191505060405180910390f35b34801561043b57600080fd5b5061049a600480360381019080803573ffffffffffffffffffffffffffffffffffffffff169060200190929190803573ffffffffffffffffffffffffffffffffffffffff169060200190929190803590602001909291905050506114d9565b604051808215151515815260200191505060405180910390f35b3480156104c057600080fd5b506104c9611574565b6040518082815260200191505060405180910390f35b3480156104eb57600080fd5b50610520600480360381019080803573ffffffffffffffffffffffffffffffffffffffff16906020019092919050505061157a565b005b34801561052e57600080fd5b5061053761178f565b6040518082815260200191505060405180910390f35b34801561055957600080fd5b50610562611794565b005b34801561057057600080fd5b506105af600480360381019080803573ffffffffffffffffffffffffffffffffffffffff16906020019092919080359060200190929190505050611925565b005b3480156105bd57600080fd5b506105dc60048036038101908080359060200190929190505050611a27565b005b3480156105ea57600080fd5b50610629600480360381019080803573ffffffffffffffffffffffffffffffffffffffff16906020019092919080359060200190929190505050611ac8565b6040518082815260200191505060405180910390f35b34801561064b57600080fd5b50610654611c31565b6040518080602001828103825283818151815260200191508051906020019080838360005b83811015610694578082015181840152602081019050610679565b50505050905090810190601f1680156106c15780820380516001836020036101000a031916815260200191505b509250505060405180910390f35b3480156106db57600080fd5b506106e4611c6a565b604051808273ffffffffffffffffffffffffffffffffffffffff1673ffffffffffffffffffffffffffffffffffffffff16815260200191505060405180910390f35b34801561073257600080fd5b5061073b611c90565b604051808215151515815260200191505060405180910390f35b34801561076157600080fd5b50610796600480360381019080803573ffffffffffffffffffffffffffffffffffffffff169060200190929190505050611ca3565b005b3480156107a457600080fd5b506107d9600480360381019080803573ffffffffffffffffffffffffffffffffffffffff169060200190929190505050611dec565b6040518082815260200191505060405180910390f35b3480156107fb57600080fd5b50610830600480360381019080803573ffffffffffffffffffffffffffffffffffffffff169060200190929190505050611e54565b6040518082815260200191505060405180910390f35b34801561085257600080fd5b5061085b611e66565b6040518080602001828103825283818151815260200191508051906020019080838360005b8381101561089b578082015181840152602081019050610880565b50505050905090810190601f1680156108c85780820380516001836020036101000a031916815260200191505b509250505060405180910390f35b3480156108e257600080fd5b506108eb611f04565b604051808273ffffffffffffffffffffffffffffffffffffffff1673ffffffffffffffffffffffffffffffffffffffff16815260200191505060405180910390f35b34801561093957600080fd5b50610942611f2a565b005b34801561095057600080fd5b5061098f600480360381019080803573ffffffffffffffffffffffffffffffffffffffff16906020019092919080359060200190929190505050612137565b604051808215151515815260200191505060405180910390f35b3480156109b557600080fd5b506109be6122a3565b005b3480156109cc57600080fd5b506109d5612435565b6040518080602001828103825283818151815260200191508051906020019080838360005b83811015610a155780820151818401526020810190506109fa565b50505050905090810190601f168015610a425780820380516001836020036101000a031916815260200191505b509250505060405180910390f35b348015610a5c57600080fd5b50610a65612585565b604051808273ffffffffffffffffffffffffffffffffffffffff1673ffffffffffffffffffffffffffffffffffffffff16815260200191505060405180910390f35b348015610ab357600080fd5b50610abc6125ab565b604051808273ffffffffffffffffffffffffffffffffffffffff1673ffffffffffffffffffffffffffffffffffffffff16815260200191505060405180910390f35b348015610b0a57600080fd5b50610b5f600480360381019080803573ffffffffffffffffffffffffffffffffffffffff169060200190929190803573ffffffffffffffffffffffffffffffffffffffff1690602001909291905050506125d0565b005b348015610b6d57600080fd5b50610b766128e4565b005b348015610b8457600080fd5b50610b8d612cba565b6040518082815260200191505060405180910390f35b348015610baf57600080fd5b50610bb8612cc6565b6040518080602001828103825283818151815260200191508051906020019080838360005b83811015610bf8578082015181840152602081019050610bdd565b50505050905090810190601f168015610c255780820380516001836020036101000a031916815260200191505b509250505060405180910390f35b348015610c3f57600080fd5b50610c48612cff565b6040518082815260200191505060405180910390f35b348015610c6a57600080fd5b50610c73612d05565b6040518082815260200191505060405180910390f35b348015610c9557600080fd5b50610cd4600480360381019080803573ffffffffffffffffffffffffffffffffffffffff16906020019092919080359060200190929190505050612d15565b604051808215151515815260200191505060405180910390f35b348015610cfa57600080fd5b50610d03612dae565b6040518080602001828103825283818151815260200191508051906020019080838360005b83811015610d43578082015181840152602081019050610d28565b50505050905090810190601f168015610d705780820380516001836020036101000a031916815260200191505b509250505060405180910390f35b348015610d8a57600080fd5b50610d93612e4c565b6040518082815260200191505060405180910390f35b348015610db557600080fd5b50610e44600480360381019080803590602001908201803590602001908080601f0160208091040260200160405190810160405280939291908181526020018383808284378201915050505050509192919290803573ffffffffffffffffffffffffffffffffffffffff1690602001909291908035906020019092919080359060200190929190505050612e52565b005b348015610e5257600080fd5b50610e5b613550565b604051808273ffffffffffffffffffffffffffffffffffffffff1673ffffffffffffffffffffffffffffffffffffffff16815260200191505060405180910390f35b348015610ea957600080fd5b50610ede600480360381019080803573ffffffffffffffffffffffffffffffffffffffff169060200190929190505050613576565b005b348015610eec57600080fd5b50610ef561380d565b604051808273ffffffffffffffffffffffffffffffffffffffff1673ffffffffffffffffffffffffffffffffffffffff16815260200191505060405180910390f35b348015610f4357600080fd5b50610f98600480360381019080803573ffffffffffffffffffffffffffffffffffffffff169060200190929190803573ffffffffffffffffffffffffffffffffffffffff169060200190929190505050613833565b6040518082815260200191505060405180910390f35b348015610fba57600080fd5b50610fc36138ba565b604051808215151515815260200191505060405180910390f35b348015610fe957600080fd5b50610ff26138c3565b6040518082815260200191505060405180910390f35b34801561101457600080fd5b50611033600480360381019080803590602001909291905050506138c9565b6040518082815260200191505060405180910390f35b34801561105557600080fd5b5061105e6138db565b604051808273ffffffffffffffffffffffffffffffffffffffff1673ffffffffffffffffffffffffffffffffffffffff16815260200191505060405180910390f35b3480156110ac57600080fd5b506110e1600480360381019080803573ffffffffffffffffffffffffffffffffffffffff169060200190929190505050613901565b005b3480156110ef57600080fd5b50611124600480360381019080803573ffffffffffffffffffffffffffffffffffffffff169060200190929190505050613a9a565b005b6000809054906101000a900473ffffffffffffffffffffffffffffffffffffffff1673ffffffffffffffffffffffffffffffffffffffff163373ffffffffffffffffffffffffffffffffffffffff161415156111ea576040517f08c379a000000000000000000000000000000000000000000000000000000000815260040180806020018281038252600a8152602001807f4f6e6c79204f776e65720000000000000000000000000000000000000000000081525060200191505060405180910390fd5b80600760006101000a81548173ffffffffffffffffffffffffffffffffffffffff021916908373ffffffffffffffffffffffffffffffffffffffff160217905550600760009054906101000a900473ffffffffffffffffffffffffffffffffffffffff1673ffffffffffffffffffffffffffffffffffffffff1663df4bcf586040518163ffffffff167c0100000000000000000000000000000000000000000000000000000000028152600401602060405180830381600087803b1580156112b157600080fd5b505af11580156112c5573d6000803e3d6000fd5b505050506040513d60208110156112db57600080fd5b81019080805190602001909291905050501515611360576040517f08c379a00000000000000000000000000000000000000000000000000000000081526004018080602001828103825260198152602001807f6e6f742061206d696772617461626c6520636f6e74726163740000000000000081525060200191505060405180910390fd5b8073ffffffffffffffffffffffffffffffffffffffff163073ffffffffffffffffffffffffffffffffffffffff167fcec25bfd2f5c0c367bf2d8d279728841ec464c722dfa79bcedd028c24a253b9660405160405180910390a350565b6040805190810160405280600b81526020017f43727970746f4672616e6300000000000000000000000000000000000000000081525081565b600460019054906101000a900473ffffffffffffffffffffffffffffffffffffffff1681565b6000600460009054906101000a900460ff161515156114a3576040517f08c379a00000000000000000000000000000000000000000000000000000000081526004018080602001828103825260148152602001807f6f6e6c79207768656e206e6f742070617573656400000000000000000000000081525060200191505060405180910390fd5b6114ad8383613cb5565b905092915050565b60006114ce600654600554613e3890919063ffffffff16565b905090565b600a5481565b6000600460009054906101000a900460ff16151515611560576040517f08c379a00000000000000000000000000000000000000000000000000000000081526004018080602001828103825260148152602001807f6f6e6c79207768656e206e6f742070617573656400000000000000000000000081525060200191505060405180910390fd5b61156b848484613e51565b90509392505050565b600f5481565b8060008173ffffffffffffffffffffffffffffffffffffffff161415151561160a576040517f08c379a000000000000000000000000000000000000000000000000000000000815260040180806020018281038252600f8152602001807f61646472657373206973204e756c6c000000000000000000000000000000000081525060200191505060405180910390fd5b6000809054906101000a900473ffffffffffffffffffffffffffffffffffffffff1673ffffffffffffffffffffffffffffffffffffffff163373ffffffffffffffffffffffffffffffffffffffff161415156116ce576040517f08c379a000000000000000000000000000000000000000000000000000000000815260040180806020018281038252600a8152602001807f4f6e6c79204f776e65720000000000000000000000000000000000000000000081525060200191505060405180910390fd5b81600960006101000a81548173ffffffffffffffffffffffffffffffffffffffff021916908373ffffffffffffffffffffffffffffffffffffffff1602179055508173ffffffffffffffffffffffffffffffffffffffff16600960009054906101000a900473ffffffffffffffffffffffffffffffffffffffff1673ffffffffffffffffffffffffffffffffffffffff167fa3fa0a434ea340b210144ceac453176b4e181b4467d8692e7144a6b0ab4ac07660405160405180910390a35050565b601281565b6000809054906101000a900473ffffffffffffffffffffffffffffffffffffffff1673ffffffffffffffffffffffffffffffffffffffff163373ffffffffffffffffffffffffffffffffffffffff16141515611858576040517f08c379a000000000000000000000000000000000000000000000000000000000815260040180806020018281038252600a8152602001807f4f6e6c79204f776e65720000000000000000000000000000000000000000000081525060200191505060405180910390fd5b600460009054906101000a900460ff1615156118dc576040517f08c379a00000000000000000000000000000000000000000000000000000000081526004018080602001828103825260108152602001807f6f6e6c79207768656e207061757365640000000000000000000000000000000081525060200191505060405180910390fd5b6000600460006101000a81548160ff0219169083151502179055507f7805862f689e2f13df9f062ff482ad3ad112aca9e0847911ed832e158c525b3360405160405180910390a1565b8160008173ffffffffffffffffffffffffffffffffffffffff16141515156119b5576040517f08c379a000000000000000000000000000000000000000000000000000000000815260040180806020018281038252600f8152602001807f61646472657373206973204e756c6c000000000000000000000000000000000081525060200191505060405180910390fd5b600460019054906101000a900473ffffffffffffffffffffffffffffffffffffffff1673ffffffffffffffffffffffffffffffffffffffff163373ffffffffffffffffffffffffffffffffffffffff16141515611a0e57fe5b611a18838361406a565b611a228383614141565b505050565b6000600460009054906101000a900460ff16151515611aae576040517f08c379a00000000000000000000000000000000000000000000000000000000081526004018080602001828103825260148152602001807f6f6e6c79207768656e206e6f742070617573656400000000000000000000000081525060200191505060405180910390fd5b611ab833836141c6565b9050611ac433826142d3565b5050565b6000806000806000611ad987614358565b93506000841415611aed5760009450611c27565b611af687611dec565b9250600e5486111515611b2d57601160009054906101000a900473ffffffffffffffffffffffffffffffffffffffff169150611b53565b601260009054906101000a900473ffffffffffffffffffffffffffffffffffffffff1691505b8173ffffffffffffffffffffffffffffffffffffffff1663e7f0edca876040518263ffffffff167c010000000000000000000000000000000000000000000000000000000002815260040180828152602001915050602060405180830381600087803b158015611bc257600080fd5b505af1158015611bd6573d6000803e3d6000fd5b505050506040513d6020811015611bec57600080fd5b81019080805190602001909291905050509050611c2483611c1683876143a190919063ffffffff16565b6143d490919063ffffffff16565b94505b5050505092915050565b6040805190810160405280600781526020017f312e302e302e300000000000000000000000000000000000000000000000000081525081565b600960009054906101000a900473ffffffffffffffffffffffffffffffffffffffff1681565b600460009054906101000a900460ff1681565b6000808260008173ffffffffffffffffffffffffffffffffffffffff1614151515611d36576040517f08c379a000000000000000000000000000000000000000000000000000000000815260040180806020018281038252600f8152602001807f61646472657373206973204e756c6c000000000000000000000000000000000081525060200191505060405180910390fd5b600460009054906101000a900460ff16151515611dbb576040517f08c379a00000000000000000000000000000000000000000000000000000000081526004018080602001828103825260148152602001807f6f6e6c79207768656e206e6f742070617573656400000000000000000000000081525060200191505060405180910390fd5b611dc484614358565b9250611dcf846143ef565b9150611ddb84836144f5565b611de6848484614656565b50505050565b600080601360008473ffffffffffffffffffffffffffffffffffffffff1673ffffffffffffffffffffffffffffffffffffffff1681526020019081526020016000205490506000811415611e4a57670de0b6b3a76400009150611e4e565b8091505b50919050565b6000611e5f826143ef565b9050919050565b600b8054600181600116156101000203166002900480601f016020809104026020016040519081016040528092919081815260200182805460018160011615610100020316600290048015611efc5780601f10611ed157610100808354040283529160200191611efc565b820191906000526020600020905b815481529060010190602001808311611edf57829003601f168201915b505050505081565b601260009054906101000a900473ffffffffffffffffffffffffffffffffffffffff1681565b6000600160009054906101000a900473ffffffffffffffffffffffffffffffffffffffff1673ffffffffffffffffffffffffffffffffffffffff163373ffffffffffffffffffffffffffffffffffffffff16141515611ff1576040517f08c379a000000000000000000000000000000000000000000000000000000000815260040180806020018281038252600e8152602001807f4f6e6c79204e6577204f776e657200000000000000000000000000000000000081525060200191505060405180910390fd5b6000809054906101000a900473ffffffffffffffffffffffffffffffffffffffff169050600160009054906101000a900473ffffffffffffffffffffffffffffffffffffffff166000806101000a81548173ffffffffffffffffffffffffffffffffffffffff021916908373ffffffffffffffffffffffffffffffffffffffff1602179055506000600160006101000a81548173ffffffffffffffffffffffffffffffffffffffff021916908373ffffffffffffffffffffffffffffffffffffffff1602179055506000809054906101000a900473ffffffffffffffffffffffffffffffffffffffff1673ffffffffffffffffffffffffffffffffffffffff168173ffffffffffffffffffffffffffffffffffffffff167f8be0079c531659141344cd1fd0a4f28419497f9722a3daafe3b4186f6b6457e060405160405180910390a350565b6000600860009054906101000a900473ffffffffffffffffffffffffffffffffffffffff1673ffffffffffffffffffffffffffffffffffffffff163373ffffffffffffffffffffffffffffffffffffffff161415156121fe576040517f08c379a000000000000000000000000000000000000000000000000000000000815260040180806020018281038252601c8152602001807f4f6e6c792066726f6d206d6967726174696f6e20636f6e74726163740000000081525060200191505060405180910390fd5b612208838361406a565b6122128383614141565b600860009054906101000a900473ffffffffffffffffffffffffffffffffffffffff1673ffffffffffffffffffffffffffffffffffffffff168373ffffffffffffffffffffffffffffffffffffffff167fe502aa3e015149f4b76a0b2b5394e3100903c4af27c3ddc98385395d3f552526846040518082815260200191505060405180910390a36001905092915050565b6000809054906101000a900473ffffffffffffffffffffffffffffffffffffffff1673ffffffffffffffffffffffffffffffffffffffff163373ffffffffffffffffffffffffffffffffffffffff16141515612367576040517f08c379a000000000000000000000000000000000000000000000000000000000815260040180806020018281038252600a8152602001807f4f6e6c79204f776e65720000000000000000000000000000000000000000000081525060200191505060405180910390fd5b600460009054906101000a900460ff161515156123ec576040517f08c379a00000000000000000000000000000000000000000000000000000000081526004018080602001828103825260148152602001807f6f6e6c79207768656e206e6f742070617573656400000000000000000000000081525060200191505060405180910390fd5b6001600460006101000a81548160ff0219169083151502179055507f6985a02210a168e66602d3235cb6db0e70f92b3ba4d376a33c0f3d9434bff62560405160405180910390a1565b6060600e54421115156124e457600b8054600181600116156101000203166002900480601f0160208091040260200160405190810160405280929190818152602001828054600181600116156101000203166002900480156124d85780601f106124ad576101008083540402835291602001916124d8565b820191906000526020600020905b8154815290600101906020018083116124bb57829003601f168201915b50505050509050612582565b600c8054600181600116156101000203166002900480601f01602080910402602001604051908101604052809291908181526020018280546001816001161561010002031660029004801561257a5780601f1061254f5761010080835404028352916020019161257a565b820191906000526020600020905b81548152906001019060200180831161255d57829003601f168201915b505050505090505b90565b600860009054906101000a900473ffffffffffffffffffffffffffffffffffffffff1681565b6000809054906101000a900473ffffffffffffffffffffffffffffffffffffffff1681565b60008160008173ffffffffffffffffffffffffffffffffffffffff1614151515612662576040517f08c379a000000000000000000000000000000000000000000000000000000000815260040180806020018281038252600f8152602001807f61646472657373206973204e756c6c000000000000000000000000000000000081525060200191505060405180910390fd5b600960009054906101000a900473ffffffffffffffffffffffffffffffffffffffff1673ffffffffffffffffffffffffffffffffffffffff163373ffffffffffffffffffffffffffffffffffffffff16141515612727576040517f08c379a000000000000000000000000000000000000000000000000000000000815260040180806020018281038252600d8152602001807f4f6e6c79204f70657261746f720000000000000000000000000000000000000081525060200191505060405180910390fd5b8391508173ffffffffffffffffffffffffffffffffffffffff1663a9059cbb848473ffffffffffffffffffffffffffffffffffffffff166370a08231306040518263ffffffff167c0100000000000000000000000000000000000000000000000000000000028152600401808273ffffffffffffffffffffffffffffffffffffffff1673ffffffffffffffffffffffffffffffffffffffff168152602001915050602060405180830381600087803b1580156127e257600080fd5b505af11580156127f6573d6000803e3d6000fd5b505050506040513d602081101561280c57600080fd5b81019080805190602001909291905050506040518363ffffffff167c0100000000000000000000000000000000000000000000000000000000028152600401808373ffffffffffffffffffffffffffffffffffffffff1673ffffffffffffffffffffffffffffffffffffffff16815260200182815260200192505050602060405180830381600087803b1580156128a257600080fd5b505af11580156128b6573d6000803e3d6000fd5b505050506040513d60208110156128cc57600080fd5b81019080805190602001909291905050505050505050565b6000600460009054906101000a900460ff1615151561296b576040517f08c379a00000000000000000000000000000000000000000000000000000000081526004018080602001828103825260148152602001807f6f6e6c79207768656e206e6f742070617573656400000000000000000000000081525060200191505060405180910390fd5b6000600760009054906101000a900473ffffffffffffffffffffffffffffffffffffffff1673ffffffffffffffffffffffffffffffffffffffff1614151515612a1c576040517f08c379a00000000000000000000000000000000000000000000000000000000081526004018080602001828103825260158152602001807f6e6f7420696e206d6967726174696f6e206d6f6465000000000000000000000081525060200191505060405180910390fd5b612a2533611e54565b9050600081111515612a9f576040517f08c379a000000000000000000000000000000000000000000000000000000000815260040180806020018281038252600a8152602001807f6e6f2062616c616e63650000000000000000000000000000000000000000000081525060200191505060405180910390fd5b612aa933826141c6565b9050612ab533826142d3565b60011515600760009054906101000a900473ffffffffffffffffffffffffffffffffffffffff1673ffffffffffffffffffffffffffffffffffffffff16637a3130e333846040518363ffffffff167c0100000000000000000000000000000000000000000000000000000000028152600401808373ffffffffffffffffffffffffffffffffffffffff1673ffffffffffffffffffffffffffffffffffffffff16815260200182815260200192505050602060405180830381600087803b158015612b7e57600080fd5b505af1158015612b92573d6000803e3d6000fd5b505050506040513d6020811015612ba857600080fd5b81019080805190602001909291905050501515141515612c30576040517f08c379a000000000000000000000000000000000000000000000000000000000815260040180806020018281038252601c8152602001807f6d69677261746546726f6d206d7573742072657475726e20747275650000000081525060200191505060405180910390fd5b600760009054906101000a900473ffffffffffffffffffffffffffffffffffffffff1673ffffffffffffffffffffffffffffffffffffffff163373ffffffffffffffffffffffffffffffffffffffff167f638edf84937fb2534b47cac985ea84d6ea4f4076315b56ea1c784d26b87e2bcb836040518082815260200191505060405180910390a350565b670de0b6b3a764000081565b6040805190810160405280600481526020017f584348460000000000000000000000000000000000000000000000000000000081525081565b60105481565b6000670de0b6b3a7640000905090565b6000600460009054906101000a900460ff16151515612d9c576040517f08c379a00000000000000000000000000000000000000000000000000000000081526004018080602001828103825260148152602001807f6f6e6c79207768656e206e6f742070617573656400000000000000000000000081525060200191505060405180910390fd5b612da683836146b5565b905092915050565b600c8054600181600116156101000203166002900480601f016020809104026020016040519081016040528092919081815260200182805460018160011615610100020316600290048015612e445780601f10612e1957610100808354040283529160200191612e44565b820191906000526020600020905b815481529060010190602001808311612e2757829003601f168201915b505050505081565b600d5481565b6000806000808660008173ffffffffffffffffffffffffffffffffffffffff1614151515612ee8576040517f08c379a000000000000000000000000000000000000000000000000000000000815260040180806020018281038252600f8152602001807f61646472657373206973204e756c6c000000000000000000000000000000000081525060200191505060405180910390fd5b600960009054906101000a900473ffffffffffffffffffffffffffffffffffffffff1673ffffffffffffffffffffffffffffffffffffffff163373ffffffffffffffffffffffffffffffffffffffff16141515612fad576040517f08c379a000000000000000000000000000000000000000000000000000000000815260040180806020018281038252600d8152602001807f4f6e6c79204f70657261746f720000000000000000000000000000000000000081525060200191505060405180910390fd5b600e544210151515612fbe57600080fd5b6000871415612fcf57429450612fd3565b8694505b6010548510151515612fe457600080fd5b612ffa6283d600426146ca90919063ffffffff16565b8511151515613071576040517f08c379a000000000000000000000000000000000000000000000000000000000815260040180806020018281038252601e8152602001807f73616e697479636865636b206f6e206e65774d6174757269747944617465000081525060200191505060405180910390fd5b8585111515156130e9576040517f08c379a000000000000000000000000000000000000000000000000000000000815260040180806020018281038252601e8152602001807f7465726d206d757374207374617274206265666f726520697420656e6473000081525060200191505060405180910390fd5b613100630107ac00426146ca90919063ffffffff16565b8611151515613177576040517f08c379a000000000000000000000000000000000000000000000000000000000815260040180806020018281038252601d8152602001807f73616e697479636865636b206f6e206e65775465726d456e644461746500000081525060200191505060405180910390fd5b8793508373ffffffffffffffffffffffffffffffffffffffff1663e7f0edca866040518263ffffffff167c010000000000000000000000000000000000000000000000000000000002815260040180828152602001915050602060405180830381600087803b1580156131e957600080fd5b505af11580156131fd573d6000803e3d6000fd5b505050506040513d602081101561321357600080fd5b81019080805190602001909291905050509250601260009054906101000a900473ffffffffffffffffffffffffffffffffffffffff1673ffffffffffffffffffffffffffffffffffffffff1663e7f0edca866040518263ffffffff167c010000000000000000000000000000000000000000000000000000000002815260040180828152602001915050602060405180830381600087803b1580156132b757600080fd5b505af11580156132cb573d6000803e3d6000fd5b505050506040513d60208110156132e157600080fd5b810190808051906020019092919050505091508282141515613391576040517f08c379a00000000000000000000000000000000000000000000000000000000081526004018080602001828103825260388152602001807f6e657720696e697469616c436f6d706f756e64696e674c6576656c203c3e206f81526020017f6c642066696e616c436f6d706f756e64696e674c6576656c000000000000000081525060400191505060405180910390fd5b601260009054906101000a900473ffffffffffffffffffffffffffffffffffffffff16601160006101000a81548173ffffffffffffffffffffffffffffffffffffffff021916908373ffffffffffffffffffffffffffffffffffffffff160217905550600c600b90805460018160011615610100020316600290046134179291906148ab565b50600e54600d81905550601054600f8190555083601260006101000a81548173ffffffffffffffffffffffffffffffffffffffff021916908373ffffffffffffffffffffffffffffffffffffffff16021790555088600c9080519060200190613481929190614932565b5084600e819055508560108190555085858973ffffffffffffffffffffffffffffffffffffffff167f4f70dd95fafd6940868ef95f73e10b7250c9619c8b4df1760d274699917542418c6040518080602001828103825283818151815260200191508051906020019080838360005b8381101561350b5780820151818401526020810190506134f0565b50505050905090810190601f1680156135385780820380516001836020036101000a031916815260200191505b509250505060405180910390a4505050505050505050565b600160009054906101000a900473ffffffffffffffffffffffffffffffffffffffff1681565b6000809054906101000a900473ffffffffffffffffffffffffffffffffffffffff1673ffffffffffffffffffffffffffffffffffffffff163373ffffffffffffffffffffffffffffffffffffffff1614151561363a576040517f08c379a000000000000000000000000000000000000000000000000000000000815260040180806020018281038252600a8152602001807f4f6e6c79204f776e65720000000000000000000000000000000000000000000081525060200191505060405180910390fd5b80600860006101000a81548173ffffffffffffffffffffffffffffffffffffffff021916908373ffffffffffffffffffffffffffffffffffffffff160217905550600860009054906101000a900473ffffffffffffffffffffffffffffffffffffffff1673ffffffffffffffffffffffffffffffffffffffff1663df4bcf586040518163ffffffff167c0100000000000000000000000000000000000000000000000000000000028152600401602060405180830381600087803b15801561370157600080fd5b505af1158015613715573d6000803e3d6000fd5b505050506040513d602081101561372b57600080fd5b810190808051906020019092919050505015156137b0576040517f08c379a00000000000000000000000000000000000000000000000000000000081526004018080602001828103825260198152602001807f6e6f742061206d696772617461626c6520636f6e74726163740000000000000081525060200191505060405180910390fd5b3073ffffffffffffffffffffffffffffffffffffffff168173ffffffffffffffffffffffffffffffffffffffff167fafb3eb79b985ae31830cb04dfc82c2d58e1b1c9851b6f7d8bf0c8311fbcaf02060405160405180910390a350565b601160009054906101000a900473ffffffffffffffffffffffffffffffffffffffff1681565b6000600360008473ffffffffffffffffffffffffffffffffffffffff1673ffffffffffffffffffffffffffffffffffffffff16815260200190815260200160002060008373ffffffffffffffffffffffffffffffffffffffff1673ffffffffffffffffffffffffffffffffffffffff16815260200190815260200160002054905092915050565b60006001905090565b600e5481565b6000670de0b6b3a76400009050919050565b600760009054906101000a900473ffffffffffffffffffffffffffffffffffffffff1681565b8060008173ffffffffffffffffffffffffffffffffffffffff1614151515613991576040517f08c379a000000000000000000000000000000000000000000000000000000000815260040180806020018281038252600f8152602001807f61646472657373206973204e756c6c000000000000000000000000000000000081525060200191505060405180910390fd5b6000809054906101000a900473ffffffffffffffffffffffffffffffffffffffff1673ffffffffffffffffffffffffffffffffffffffff163373ffffffffffffffffffffffffffffffffffffffff16141515613a55576040517f08c379a000000000000000000000000000000000000000000000000000000000815260040180806020018281038252600a8152602001807f4f6e6c79204f776e65720000000000000000000000000000000000000000000081525060200191505060405180910390fd5b81600160006101000a81548173ffffffffffffffffffffffffffffffffffffffff021916908373ffffffffffffffffffffffffffffffffffffffff1602179055505050565b60008160008173ffffffffffffffffffffffffffffffffffffffff1614151515613b2c576040517f08c379a000000000000000000000000000000000000000000000000000000000815260040180806020018281038252600f8152602001807f61646472657373206973204e756c6c000000000000000000000000000000000081525060200191505060405180910390fd5b6000809054906101000a900473ffffffffffffffffffffffffffffffffffffffff1673ffffffffffffffffffffffffffffffffffffffff163373ffffffffffffffffffffffffffffffffffffffff16141515613bf0576040517f08c379a000000000000000000000000000000000000000000000000000000000815260040180806020018281038252600a8152602001807f4f6e6c79204f776e65720000000000000000000000000000000000000000000081525060200191505060405180910390fd5b600460019054906101000a900473ffffffffffffffffffffffffffffffffffffffff16915082600460016101000a81548173ffffffffffffffffffffffffffffffffffffffff021916908373ffffffffffffffffffffffffffffffffffffffff1602179055508273ffffffffffffffffffffffffffffffffffffffff168273ffffffffffffffffffffffffffffffffffffffff167f26799a531ff016a3eb21bcc827a4459bf024d10c0220ea263eb69d795d50ab7560405160405180910390a3505050565b60008260008173ffffffffffffffffffffffffffffffffffffffff1614151515613d47576040517f08c379a000000000000000000000000000000000000000000000000000000000815260040180806020018281038252600f8152602001807f61646472657373206973204e756c6c000000000000000000000000000000000081525060200191505060405180910390fd5b82600360003373ffffffffffffffffffffffffffffffffffffffff1673ffffffffffffffffffffffffffffffffffffffff16815260200190815260200160002060008673ffffffffffffffffffffffffffffffffffffffff1673ffffffffffffffffffffffffffffffffffffffff168152602001908152602001600020819055508373ffffffffffffffffffffffffffffffffffffffff163373ffffffffffffffffffffffffffffffffffffffff167f8c5be1e5ebec7d5bd14f71427d1e84f3dd0314c0f7b2291e5b200ac8c7c3b925856040518082815260200191505060405180910390a3600191505092915050565b6000828211151515613e4657fe5b818303905092915050565b6000600360008573ffffffffffffffffffffffffffffffffffffffff1673ffffffffffffffffffffffffffffffffffffffff16815260200190815260200160002060003373ffffffffffffffffffffffffffffffffffffffff1673ffffffffffffffffffffffffffffffffffffffff168152602001908152602001600020548211151515613f47576040517f08c379a00000000000000000000000000000000000000000000000000000000081526004018080602001828103825260138152602001807f696e73756666696369656e7420746f6b656e730000000000000000000000000081525060200191505060405180910390fd5b613fd682600360008773ffffffffffffffffffffffffffffffffffffffff1673ffffffffffffffffffffffffffffffffffffffff16815260200190815260200160002060003373ffffffffffffffffffffffffffffffffffffffff1673ffffffffffffffffffffffffffffffffffffffff16815260200190815260200160002054613e3890919063ffffffff16565b600360008673ffffffffffffffffffffffffffffffffffffffff1673ffffffffffffffffffffffffffffffffffffffff16815260200190815260200160002060003373ffffffffffffffffffffffffffffffffffffffff1673ffffffffffffffffffffffffffffffffffffffff168152602001908152602001600020819055506140618484846146e8565b90509392505050565b6000808360008173ffffffffffffffffffffffffffffffffffffffff16141515156140fd576040517f08c379a000000000000000000000000000000000000000000000000000000000815260040180806020018281038252600f8152602001807f61646472657373206973204e756c6c000000000000000000000000000000000081525060200191505060405180910390fd5b61410685614358565b9250614111856143ef565b915061412f8561412a86856146ca90919063ffffffff16565b6144f5565b61413a858484614656565b5050505050565b614156816005546146ca90919063ffffffff16565b6005819055508173ffffffffffffffffffffffffffffffffffffffff16600073ffffffffffffffffffffffffffffffffffffffff167fddf252ad1be2c89b69c2b068fc378daa952ba7f163c4a11628f55a4df523b3ef836040518082815260200191505060405180910390a35050565b6000806000808560008173ffffffffffffffffffffffffffffffffffffffff161415151561425c576040517f08c379a000000000000000000000000000000000000000000000000000000000815260040180806020018281038252600f8152602001807f61646472657373206973204e756c6c000000000000000000000000000000000081525060200191505060405180910390fd5b61426587614358565b9350614270876143ef565b92506142858684613e3890919063ffffffff16565b9150600a54821115156142b0576142a582876146ca90919063ffffffff16565b9450600091506142b4565b8594505b6142be87836144f5565b6142c9878585614656565b5050505092915050565b6142e8816006546146ca90919063ffffffff16565b600681905550600073ffffffffffffffffffffffffffffffffffffffff168273ffffffffffffffffffffffffffffffffffffffff167fddf252ad1be2c89b69c2b068fc378daa952ba7f163c4a11628f55a4df523b3ef836040518082815260200191505060405180910390a35050565b6000600260008373ffffffffffffffffffffffffffffffffffffffff1673ffffffffffffffffffffffffffffffffffffffff168152602001908152602001600020549050919050565b600080828402905060008414806143c257508284828115156143bf57fe5b04145b15156143ca57fe5b8091505092915050565b60008082848115156143e257fe5b0490508091505092915050565b6000806000806143fe85614358565b9250600083141561441257600093506144ed565b61441b85611dec565b9150614425614772565b73ffffffffffffffffffffffffffffffffffffffff1663a1d1fe5d6040518163ffffffff167c0100000000000000000000000000000000000000000000000000000000028152600401602060405180830381600087803b15801561448857600080fd5b505af115801561449c573d6000803e3d6000fd5b505050506040513d60208110156144b257600080fd5b810190808051906020019092919050505090506144ea826144dc83866143a190919063ffffffff16565b6143d490919063ffffffff16565b93505b505050919050565b600061450183836147d2565b600082141561455257601360008473ffffffffffffffffffffffffffffffffffffffff1673ffffffffffffffffffffffffffffffffffffffff16815260200190815260200160002060009055614651565b61455a614772565b73ffffffffffffffffffffffffffffffffffffffff1663a1d1fe5d6040518163ffffffff167c0100000000000000000000000000000000000000000000000000000000028152600401602060405180830381600087803b1580156145bd57600080fd5b505af11580156145d1573d6000803e3d6000fd5b505050506040513d60208110156145e757600080fd5b8101908080519060200190929190505050905061460383611dec565b811415156146505780601360008573ffffffffffffffffffffffffffffffffffffffff1673ffffffffffffffffffffffffffffffffffffffff168152602001908152602001600020819055505b5b505050565b60008082841115614685576146748385613e3890919063ffffffff16565b915061468085836142d3565b6146ae565b828410156146ad576146a08484613e3890919063ffffffff16565b90506146ac8582614141565b5b5b5050505050565b60006146c23384846146e8565b905092915050565b60008082840190508381101515156146de57fe5b8091505092915050565b6000806146f585846141c6565b9050614701848261406a565b8373ffffffffffffffffffffffffffffffffffffffff168573ffffffffffffffffffffffffffffffffffffffff167fddf252ad1be2c89b69c2b068fc378daa952ba7f163c4a11628f55a4df523b3ef836040518082815260200191505060405180910390a360019150509392505050565b6000600e54421115156147a957601160009054906101000a900473ffffffffffffffffffffffffffffffffffffffff1690506147cf565b601260009054906101000a900473ffffffffffffffffffffffffffffffffffffffff1690505b90565b8160008173ffffffffffffffffffffffffffffffffffffffff1614151515614862576040517f08c379a000000000000000000000000000000000000000000000000000000000815260040180806020018281038252600f8152602001807f61646472657373206973204e756c6c000000000000000000000000000000000081525060200191505060405180910390fd5b81600260008573ffffffffffffffffffffffffffffffffffffffff1673ffffffffffffffffffffffffffffffffffffffff16815260200190815260200160002081905550505050565b828054600181600116156101000203166002900490600052602060002090601f016020900481019282601f106148e45780548555614921565b8280016001018555821561492157600052602060002091601f016020900482015b82811115614920578254825591600101919060010190614905565b5b50905061492e91906149b2565b5090565b828054600181600116156101000203166002900490600052602060002090601f016020900481019282601f1061497357805160ff19168380011785556149a1565b828001600101855582156149a1579182015b828111156149a0578251825591602001919060010190614985565b5b5090506149ae91906149b2565b5090565b6149d491905b808211156149d05760008160009055506001016149b8565b5090565b905600a165627a7a72305820d3caff90698c54b258ee5543f28bdd3605303952596505a20149cab3e39952eb0029",
  "source": "pragma solidity ^0.4.24;\nimport \"./MintableToken.sol\";\nimport \"./MigrationAgent.sol\";\nimport \"./Operator.sol\";\nimport \"./InterestRateNone.sol\";\n\ncontract CryptoFranc is MintableToken, MigrationAgent, Operator, InterestRateNone {\n\n    using SafeMath for uint256;\n\n    string constant public name = \"CryptoFranc\";\n    string constant public symbol = \"XCHF\";\n    uint256 constant public decimals = 18;\n    string constant public version = \"1.0.0.0\";\n    uint256 public dustAmount;\n\n    // Changes as the token is converted to the next vintage\n    string public currentFullName;\n    string public announcedFullName;\n    uint256 public currentMaturityDate;\n    uint256 public announcedMaturityDate;\n    uint256 public currentTermEndDate;\n    uint256 public announcedTermEndDate;\n    InterestRateInterface public currentTerms;\n    InterestRateInterface public announcedTerms;\n\n    mapping(address => uint256) internal compoundedInterestFactor;\n\n    // CONSTRUCTORS\n\n    constructor(string _initialFullName, uint256 _dustAmount) public {\n        // initially, there is no interest. This contract has an interest-free default implementation\n        // of the InterestRateInterface. Having this internalized saves gas in comparison to having an\n        // external, separate smart contract.\n        currentFullName = _initialFullName;\n        announcedFullName = _initialFullName;\n        dustAmount = _dustAmount;    \n        currentTerms = this;\n        announcedTerms = this;\n        announcedMaturityDate = block.timestamp;\n        announcedTermEndDate = block.timestamp;\n    }\n\n    // EXTERNAL FUNCTIONS\n\n    // PUBLIC FUNCTIONS\n\n    /// @dev Invoked by the issuer to convert all the outstanding tokens into bonds of the latest vintage.\n    /// @param _newName Name of announced bond\n    /// @param _newTerms Address of announced bond\n    /// @param _newMaturityDate Maturity Date of announced bond\n    /// @param _newTermEndDate End Date of announced bond\n    function announceRollover(string _newName, address _newTerms, uint256 _newMaturityDate, uint256 _newTermEndDate) public notNull(_newTerms) onlyOperator {\n        // a new term can not be announced before the current is expired\n        require(block.timestamp >= announcedMaturityDate);\n\n        // for test purposes\n        uint256 newMaturityDate;\n        if (_newMaturityDate == 0)\n            newMaturityDate = block.timestamp;\n        else\n            newMaturityDate = _newMaturityDate;\n\n        // new newMaturityDate must be at least or greater than the existing announced terms end date\n        require(newMaturityDate >= announcedTermEndDate);\n\n        //require new term dates not too far in the future\n        //this is to prevent severe operator time calculaton errors\n        require(newMaturityDate <= block.timestamp.add(100 days),\"sanitycheck on newMaturityDate\");\n        require(newMaturityDate <= _newTermEndDate,\"term must start before it ends\");\n        require(_newTermEndDate <= block.timestamp.add(200 days),\"sanitycheck on newTermEndDate\");\n\n        InterestRateInterface terms = InterestRateInterface(_newTerms);\n        \n        // ensure that _newTerms begins at the compoundLevel that the announcedTerms ends\n        // they must align\n        uint256 newBeginLevel = terms.getCompoundingLevelDate(newMaturityDate);\n        uint256 annEndLevel = announcedTerms.getCompoundingLevelDate(newMaturityDate);\n        require(annEndLevel == newBeginLevel,\"new initialCompoundingLevel <> old finalCompoundingLevel\");\n\n        //rollover\n        currentTerms = announcedTerms;\n        currentFullName = announcedFullName;\n        currentMaturityDate = announcedMaturityDate;\n        currentTermEndDate = announcedTermEndDate;\n        announcedTerms = terms;\n        announcedFullName = _newName;\n        announcedMaturityDate = newMaturityDate;\n        announcedTermEndDate = _newTermEndDate;\n\n        emit AnnounceRollover(_newName, _newTerms, newMaturityDate, _newTermEndDate);\n    }\n\n    /// @dev collectInterest is called to update the internal state of `_owner` balance and force a interest payment\n    /// This function does not change the effective amount of the `_owner` as returned by balanceOf\n    /// and thus, can be called by anyone willing to pay for the gas.\n    /// The designed usage for this function is to allow the CryptoFranc owner to collect interest from inactive accounts, \n    /// since interest collection is updated automatically in normal transfers\n    /// calling collectInterest is functional equivalent to transfer 0 tokens to `_owner`\n    /// @param _owner The account being updated\n    function collectInterest( address _owner) public notNull(_owner) whenNotPaused {\n        uint256 rawBalance = super.balanceOf(_owner);\n        uint256 adjustedBalance = getAdjustedValue(_owner);\n        setBalance(_owner, adjustedBalance);\n        checkMintOrBurn(_owner, rawBalance, adjustedBalance);\n    }\n\n    /*\n        MIGRATE FUNCTIONS\n     */\n    // safe migrate function\n    /// @dev migrageFrom is called from the migrating contract `migrationFromContract`\n    /// @param _from The account to be migrated into new contract\n    /// @param _value The token balance to be migrated\n    function migrateFrom(address _from, uint256 _value) public onlyMigrationFromContract returns(bool) {\n        addTokens(_from, _value);\n        notifyMinted(_from, _value);\n\n        emit MigratedFrom(_from, migrationFromContract, _value);\n        return true;\n    }\n\n    /// @dev Each user calls the migrate function on the original contract to migrate the users tokens to the migration agent migrateFrom on the `migrationToContract` contract\n    function migrate() public whenNotPaused {\n        require(migrationToContract != 0, \"not in migration mode\"); // revert if not in migrate mode\n        uint256 value = balanceOf(msg.sender);\n        require (value > 0, \"no balance\"); // revert if not value left to transfer\n        value = subTokens(msg.sender, value);\n        notifyBurned(msg.sender, value);\n        require(MigrationAgent(migrationToContract).migrateFrom(msg.sender, value)==true, \"migrateFrom must return true\");\n\n        emit MigratedTo(msg.sender, migrationToContract, value);\n    }\n\n    /*\n        Helper FUNCTIONS\n    */\n\n    /// @dev helper function to return foreign tokens accidental send to contract address\n    /// @param _tokenaddress Address of foreign ERC20 contract\n    /// @param _to Address to send foreign tokens to\n    function refundForeignTokens(address _tokenaddress,address _to) public notNull(_to) onlyOperator {\n        ERC20Interface token = ERC20Interface(_tokenaddress);\n        // transfer current balance for this contract to _to  in token contract\n        token.transfer(_to, token.balanceOf(this));\n    }\n\n    /// @dev get fullname of active interest contract\n    function getFullName() public view returns (string) {\n        if ((block.timestamp <= announcedMaturityDate))\n            return currentFullName;\n        else\n            return announcedFullName;\n    }\n\n    /// @dev get compounding level of an owner account\n    /// @param _owner tokens address\n    /// @return The compouding level\n    function getCompoundingLevel(address _owner) public view returns (uint256) {\n        uint256 level = compoundedInterestFactor[_owner];\n        if (level == 0) {\n            // important note that for InterestRateNone or empty accounts the compoundedInterestFactor is newer stored by setBalance\n            return SCALEFACTOR;\n        } else {\n            return level;\n        }\n    }\n\n    /// @param _owner The address from which the balance will be retrieved\n    /// @return The balance\n    function balanceOf(address _owner) public view returns (uint256) {\n        return getAdjustedValue(_owner);\n    }\n\n    // INTERNAL FUNCTIONS\n\n    /// @notice add tokens `_value` tokens to `owner`\n    /// @param _owner The address of the account\n    /// @param _value The amount of tokens to be added\n    function addTokens(address _owner,uint256 _value) notNull(_owner) internal {\n        uint256 rawBalance = super.balanceOf(_owner);\n        uint256 adjustedBalance = getAdjustedValue(_owner);\n        setBalance(_owner, adjustedBalance.add(_value));\n        checkMintOrBurn(_owner, rawBalance, adjustedBalance);\n    }\n\n    /// @notice subtract tokens `_value` tokens from `owner`\n    /// @param _owner The address of the account\n    /// @param _value The amount of tokens to be subtracted\n    function subTokens(address _owner, uint256 _value) internal notNull(_owner) returns (uint256 _valueDeducted ) {\n        uint256 rawBalance = super.balanceOf(_owner);\n        uint256 adjustedBalance = getAdjustedValue(_owner);\n        uint256 newBalance = adjustedBalance.sub(_value);\n        if (newBalance <= dustAmount) {\n            // dont leave balance below dust, empty account\n            _valueDeducted = _value.add(newBalance);\n            newBalance =  0;\n        } else {\n            _valueDeducted = _value;\n        }\n        setBalance(_owner, newBalance);\n        checkMintOrBurn(_owner, rawBalance, adjustedBalance);\n    }\n\n    /// @notice set balance of account `owner` to `_value`\n    /// @param _owner The address of the account\n    /// @param _value The new balance \n    function setBalance(address _owner, uint256 _value) internal {\n        super.setBalance(_owner, _value);\n        // update `owner`s compoundLevel\n        if (_value == 0) {\n            // stall account release storage\n            delete compoundedInterestFactor[_owner];\n        } else {\n            // only update compoundedInterestFactor when value has changed \n            // important note: for InterestRateNone the compoundedInterestFactor is newer stored because the default value for getCompoundingLevel is SCALEFACTOR\n            uint256 currentLevel = getInterestRate().getCurrentCompoundingLevel();\n            if (currentLevel != getCompoundingLevel(_owner)) {\n                compoundedInterestFactor[_owner] = currentLevel;\n            }\n        }\n    }\n\n    /// @dev get address of active bond\n    function getInterestRate() internal view returns (InterestRateInterface) {\n        if ((block.timestamp <= announcedMaturityDate))\n            return currentTerms;\n        else\n            return announcedTerms;\n    }\n\n    /// @notice get adjusted balance of account `owner`\n    /// @param _owner The address of the account\n    function getAdjustedValue(address _owner) internal view returns (uint256) {\n        uint256 _rawBalance = super.balanceOf(_owner);\n        // if _rawBalance is 0 dont perform calculations\n        if (_rawBalance == 0)\n            return 0;\n        // important note: for empty/new account the getCompoundingLevel value is not meaningfull\n        uint256 startLevel = getCompoundingLevel(_owner);\n        uint256 currentLevel = getInterestRate().getCurrentCompoundingLevel();\n        return _rawBalance.mul(currentLevel).div(startLevel);\n    }\n\n    /// @notice get adjusted balance of account `owner` at data `date`\n    /// @param _owner The address of the account\n    /// @param _date The date of the balance NB: MUST be within valid current and announced Terms date range\n    function getAdjustedValueDate(address _owner,uint256 _date) public view returns (uint256) {\n        uint256 _rawBalance = super.balanceOf(_owner);\n        // if _rawBalance is 0 dont perform calculations\n        if (_rawBalance == 0)\n            return 0;\n        // important note: for empty/new account the getCompoundingLevel value is not meaningfull\n        uint256 startLevel = getCompoundingLevel(_owner);\n\n        InterestRateInterface dateTerms;\n        if (_date <= announcedMaturityDate)\n            dateTerms = currentTerms;\n        else\n            dateTerms = announcedTerms;\n\n        uint256 dateLevel = dateTerms.getCompoundingLevelDate(_date);\n        return _rawBalance.mul(dateLevel).div(startLevel);\n    }\n\n    // PRIVATE FUNCTIONS\n\n    // EVENTS\n\n    event AnnounceRollover(string newName, address indexed newTerms, uint256 indexed newMaturityDate, uint256 indexed newTermEndDate);\n}",
  "sourcePath": "/home/benjamin/Documents/GitHub/Ethereum/share-dispenser/share-dispenser/contracts/XCHFContracts/CryptoFranc.sol",
  "compiler": {
    "name": "solc",
    "version": "0.4.24+commit.e67f0147.Emscripten.clang"
  },
  "schemaVersion": "2.0.1",
  "updatedAt": "2018-12-04T14:32:24.812Z"
}