{
  "contractName": "InterestRateNone",
  "abi": [
    {
      "constant": true,
      "inputs": [],
      "name": "SCALEFACTOR",
      "outputs": [
        {
          "name": "",
          "type": "uint256"
        }
      ],
      "payable": false,
      "stateMutability": "view",
      "type": "function"
    },
    {
      "constant": true,
      "inputs": [],
      "name": "getCurrentCompoundingLevel",
      "outputs": [
        {
          "name": "",
          "type": "uint256"
        }
      ],
      "payable": false,
      "stateMutability": "view",
      "type": "function"
    },
    {
      "constant": true,
      "inputs": [
        {
          "name": "",
          "type": "uint256"
        }
      ],
      "name": "getCompoundingLevelDate",
      "outputs": [
        {
          "name": "",
          "type": "uint256"
        }
      ],
      "payable": false,
      "stateMutability": "view",
      "type": "function"
    }
  ],
  "bytecode": "0x608060405234801561001057600080fd5b5061014d806100206000396000f300608060405260043610610057576000357c0100000000000000000000000000000000000000000000000000000000900463ffffffff1680639395b0bd1461005c578063a1d1fe5d14610087578063e7f0edca146100b2575b600080fd5b34801561006857600080fd5b506100716100f3565b6040518082815260200191505060405180910390f35b34801561009357600080fd5b5061009c6100ff565b6040518082815260200191505060405180910390f35b3480156100be57600080fd5b506100dd6004803603810190808035906020019092919050505061010f565b6040518082815260200191505060405180910390f35b670de0b6b3a764000081565b6000670de0b6b3a7640000905090565b6000670de0b6b3a764000090509190505600a165627a7a723058208280c780d584e16ed27ef5fbfa87390ba5a21baaf7c245f4836af572507a33e40029",
  "source": "pragma solidity ^0.4.24;\n\ncontract InterestRateInterface {\n\n    uint256 public constant SCALEFACTOR = 1e18;\n\n    /// @notice get compounding level for currenct day\n    function getCurrentCompoundingLevel() public view returns (uint256);\n\n    /// @notice get compounding level for _date `_date`\n    /// @param _date The date \n    function getCompoundingLevelDate(uint256 _date) public view returns (uint256);\n\n}\n\ncontract InterestRateNone is InterestRateInterface {\n    \n    /// @notice get compounding level for currenct day\n    function getCurrentCompoundingLevel() public view returns (uint256) {\n        return SCALEFACTOR;\n    }\n\n    /// @notice get compounding level for day `_date`\n    /// param _date The daynumber \n    function getCompoundingLevelDate(uint256 /* _date */) public view returns (uint256) {\n        return SCALEFACTOR;\n    }\n\n}",
  "sourcePath": "/home/benjamin/Documents/GitHub/Ethereum/share-dispenser/share-dispenser/contracts/XCHFContracts/InterestRateNone.sol",
  "compiler": {
    "name": "solc",
    "version": "0.4.24+commit.e67f0147.Emscripten.clang"
  },
  "schemaVersion": "2.0.1",
  "updatedAt": "2018-12-04T14:32:24.795Z"
}