{
  "contractName": "ShareDispenser",
  "abi": [
    {
      "constant": true,
      "inputs": [],
      "name": "XCHFContractAddress",
      "outputs": [
        {
          "name": "",
          "type": "address"
        }
      ],
      "payable": false,
      "stateMutability": "view",
      "type": "function"
    },
    {
      "constant": true,
      "inputs": [],
      "name": "ALEQContractAddress",
      "outputs": [
        {
          "name": "",
          "type": "address"
        }
      ],
      "payable": false,
      "stateMutability": "view",
      "type": "function"
    },
    {
      "constant": true,
      "inputs": [],
      "name": "ALEQSupplyAddress",
      "outputs": [
        {
          "name": "",
          "type": "address"
        }
      ],
      "payable": false,
      "stateMutability": "view",
      "type": "function"
    },
    {
      "constant": false,
      "inputs": [],
      "name": "renounceOwnership",
      "outputs": [],
      "payable": false,
      "stateMutability": "nonpayable",
      "type": "function"
    },
    {
      "constant": true,
      "inputs": [],
      "name": "owner",
      "outputs": [
        {
          "name": "",
          "type": "address"
        }
      ],
      "payable": false,
      "stateMutability": "view",
      "type": "function"
    },
    {
      "constant": true,
      "inputs": [],
      "name": "isOwner",
      "outputs": [
        {
          "name": "",
          "type": "bool"
        }
      ],
      "payable": false,
      "stateMutability": "view",
      "type": "function"
    },
    {
      "constant": true,
      "inputs": [],
      "name": "XCHFPayInAddress",
      "outputs": [
        {
          "name": "",
          "type": "address"
        }
      ],
      "payable": false,
      "stateMutability": "view",
      "type": "function"
    },
    {
      "constant": true,
      "inputs": [],
      "name": "sharePriceInXCHF",
      "outputs": [
        {
          "name": "",
          "type": "uint256"
        }
      ],
      "payable": false,
      "stateMutability": "view",
      "type": "function"
    },
    {
      "constant": false,
      "inputs": [
        {
          "name": "newOwner",
          "type": "address"
        }
      ],
      "name": "transferOwnership",
      "outputs": [],
      "payable": false,
      "stateMutability": "nonpayable",
      "type": "function"
    },
    {
      "inputs": [
        {
          "name": "initialXCHFContractAddress",
          "type": "address"
        },
        {
          "name": "initialALEQContractAddress",
          "type": "address"
        }
      ],
      "payable": false,
      "stateMutability": "nonpayable",
      "type": "constructor"
    },
    {
      "anonymous": false,
      "inputs": [
        {
          "indexed": false,
          "name": "newXCHFContractAddress",
          "type": "address"
        }
      ],
      "name": "XCHFContractAddressSet",
      "type": "event"
    },
    {
      "anonymous": false,
      "inputs": [
        {
          "indexed": false,
          "name": "newALEQContractAddress",
          "type": "address"
        }
      ],
      "name": "ALEQContractAddressSet",
      "type": "event"
    },
    {
      "anonymous": false,
      "inputs": [
        {
          "indexed": false,
          "name": "newXCHFPayInAddress",
          "type": "address"
        }
      ],
      "name": "XCHFPayInAddressSet",
      "type": "event"
    },
    {
      "anonymous": false,
      "inputs": [
        {
          "indexed": false,
          "name": "newALEQSupplyAddress",
          "type": "address"
        }
      ],
      "name": "ALEQSupplyAddressSet",
      "type": "event"
    },
    {
      "anonymous": false,
      "inputs": [
        {
          "indexed": true,
          "name": "buyer",
          "type": "address"
        },
        {
          "indexed": false,
          "name": "amount",
          "type": "uint256"
        }
      ],
      "name": "sharesPurchased",
      "type": "event"
    },
    {
      "anonymous": false,
      "inputs": [
        {
          "indexed": false,
          "name": "newSharePriceInXCHF",
          "type": "uint256"
        }
      ],
      "name": "sharePriceInXCHFSet",
      "type": "event"
    },
    {
      "anonymous": false,
      "inputs": [
        {
          "indexed": true,
          "name": "previousOwner",
          "type": "address"
        },
        {
          "indexed": true,
          "name": "newOwner",
          "type": "address"
        }
      ],
      "name": "OwnershipTransferred",
      "type": "event"
    },
    {
      "constant": false,
      "inputs": [
        {
          "name": "newXCHFContractAddress",
          "type": "address"
        }
      ],
      "name": "setXCHFContractAddress",
      "outputs": [],
      "payable": false,
      "stateMutability": "nonpayable",
      "type": "function"
    },
    {
      "constant": false,
      "inputs": [
        {
          "name": "newXCHFPayInAddress",
          "type": "address"
        }
      ],
      "name": "setXCHFPayInAddress",
      "outputs": [],
      "payable": false,
      "stateMutability": "nonpayable",
      "type": "function"
    },
    {
      "constant": false,
      "inputs": [
        {
          "name": "newALEQContractAddress",
          "type": "address"
        }
      ],
      "name": "setALEQContractAddress",
      "outputs": [],
      "payable": false,
      "stateMutability": "nonpayable",
      "type": "function"
    },
    {
      "constant": false,
      "inputs": [
        {
          "name": "newALEQSupplyAddress",
          "type": "address"
        }
      ],
      "name": "setALEQSupplyAddress",
      "outputs": [],
      "payable": false,
      "stateMutability": "nonpayable",
      "type": "function"
    },
    {
      "constant": false,
      "inputs": [
        {
          "name": "newSharePriceInRappen",
          "type": "uint256"
        }
      ],
      "name": "setSharePrice",
      "outputs": [],
      "payable": false,
      "stateMutability": "nonpayable",
      "type": "function"
    },
    {
      "constant": true,
      "inputs": [],
      "name": "getAvailableSupply",
      "outputs": [
        {
          "name": "",
          "type": "uint256"
        }
      ],
      "payable": false,
      "stateMutability": "view",
      "type": "function"
    },
    {
      "constant": true,
      "inputs": [],
      "name": "getTotalSupply",
      "outputs": [
        {
          "name": "",
          "type": "uint256"
        }
      ],
      "payable": false,
      "stateMutability": "view",
      "type": "function"
    },
    {
      "constant": true,
      "inputs": [],
      "name": "getTotalNumberOfShares",
      "outputs": [
        {
          "name": "",
          "type": "uint256"
        }
      ],
      "payable": false,
      "stateMutability": "view",
      "type": "function"
    },
    {
      "constant": false,
      "inputs": [
        {
          "name": "numberOfSharesToBuy",
          "type": "uint256"
        }
      ],
      "name": "buyShares",
      "outputs": [],
      "payable": false,
      "stateMutability": "nonpayable",
      "type": "function"
    }
  ],
  "bytecode": "0x60806040526005805534801561001457600080fd5b50604051604080611ba58339810180604052810190808051906020019092919080519060200190929190505050336000806101000a81548173ffffffffffffffffffffffffffffffffffffffff021916908373ffffffffffffffffffffffffffffffffffffffff1602179055506000809054906101000a900473ffffffffffffffffffffffffffffffffffffffff1673ffffffffffffffffffffffffffffffffffffffff16600073ffffffffffffffffffffffffffffffffffffffff167f8be0079c531659141344cd1fd0a4f28419497f9722a3daafe3b4186f6b6457e060405160405180910390a381600160006101000a81548173ffffffffffffffffffffffffffffffffffffffff021916908373ffffffffffffffffffffffffffffffffffffffff16021790555080600360006101000a81548173ffffffffffffffffffffffffffffffffffffffff021916908373ffffffffffffffffffffffffffffffffffffffff1602179055505050611a15806101906000396000f3006080604052600436106100fb576000357c0100000000000000000000000000000000000000000000000000000000900463ffffffff1680620974b01461010057806312fa9e051461014357806316b60249146101865780631a7220d9146101b35780633167adda1461020a578063537f15771461024d57806355c89603146102a45780636f9c7c3a146102e7578063715018a61461033e57806373845d1d146103555780638da5cb5b146103805780638f32d59b146103d7578063b36a428814610406578063c167d1cd1461045d578063c4e41b2214610488578063d1a93d18146104b3578063e0476d57146104e0578063f2fde38b1461050b575b600080fd5b34801561010c57600080fd5b50610141600480360381019080803573ffffffffffffffffffffffffffffffffffffffff16906020019092919050505061054e565b005b34801561014f57600080fd5b50610184600480360381019080803573ffffffffffffffffffffffffffffffffffffffff1690602001909291905050506106f5565b005b34801561019257600080fd5b506101b16004803603810190808035906020019092919050505061089c565b005b3480156101bf57600080fd5b506101c8610975565b604051808273ffffffffffffffffffffffffffffffffffffffff1673ffffffffffffffffffffffffffffffffffffffff16815260200191505060405180910390f35b34801561021657600080fd5b5061024b600480360381019080803573ffffffffffffffffffffffffffffffffffffffff16906020019092919050505061099b565b005b34801561025957600080fd5b50610262610b1c565b604051808273ffffffffffffffffffffffffffffffffffffffff1673ffffffffffffffffffffffffffffffffffffffff16815260200191505060405180910390f35b3480156102b057600080fd5b506102e5600480360381019080803573ffffffffffffffffffffffffffffffffffffffff169060200190929190505050610b42565b005b3480156102f357600080fd5b506102fc610cc3565b604051808273ffffffffffffffffffffffffffffffffffffffff1673ffffffffffffffffffffffffffffffffffffffff16815260200191505060405180910390f35b34801561034a57600080fd5b50610353610ce9565b005b34801561036157600080fd5b5061036a610dbb565b6040518082815260200191505060405180910390f35b34801561038c57600080fd5b50610395610e88565b604051808273ffffffffffffffffffffffffffffffffffffffff1673ffffffffffffffffffffffffffffffffffffffff16815260200191505060405180910390f35b3480156103e357600080fd5b506103ec610eb1565b604051808215151515815260200191505060405180910390f35b34801561041257600080fd5b5061041b610f08565b604051808273ffffffffffffffffffffffffffffffffffffffff1673ffffffffffffffffffffffffffffffffffffffff16815260200191505060405180910390f35b34801561046957600080fd5b50610472610f2e565b6040518082815260200191505060405180910390f35b34801561049457600080fd5b5061049d61119c565b6040518082815260200191505060405180910390f35b3480156104bf57600080fd5b506104de60048036038101908080359060200190929190505050611269565b005b3480156104ec57600080fd5b506104f56118ca565b6040518082815260200191505060405180910390f35b34801561051757600080fd5b5061054c600480360381019080803573ffffffffffffffffffffffffffffffffffffffff1690602001909291905050506118d0565b005b610556610eb1565b151561056157600080fd5b600073ffffffffffffffffffffffffffffffffffffffff168173ffffffffffffffffffffffffffffffffffffffff161415151561062c576040517f08c379a00000000000000000000000000000000000000000000000000000000081526004018080602001828103825260228152602001807f5843484620646f6573206e6f742072657369646520617420616464726573732081526020017f307800000000000000000000000000000000000000000000000000000000000081525060400191505060405180910390fd5b80600160006101000a81548173ffffffffffffffffffffffffffffffffffffffff021916908373ffffffffffffffffffffffffffffffffffffffff1602179055507f413fe087676ce8246bf0ff64d70a12ecdda2a2a1d8cac17f1705219e7fe98d53600160009054906101000a900473ffffffffffffffffffffffffffffffffffffffff16604051808273ffffffffffffffffffffffffffffffffffffffff1673ffffffffffffffffffffffffffffffffffffffff16815260200191505060405180910390a150565b6106fd610eb1565b151561070857600080fd5b600073ffffffffffffffffffffffffffffffffffffffff168173ffffffffffffffffffffffffffffffffffffffff16141515156107d3576040517f08c379a00000000000000000000000000000000000000000000000000000000081526004018080602001828103825260228152602001807f414c455120646f6573206e6f742072657369646520617420616464726573732081526020017f307800000000000000000000000000000000000000000000000000000000000081525060400191505060405180910390fd5b80600360006101000a81548173ffffffffffffffffffffffffffffffffffffffff021916908373ffffffffffffffffffffffffffffffffffffffff1602179055507f7109a0d0ce5ac3ff7110b17e68d7ac8fc8ef771b645e1a0dce03a4988530d681600360009054906101000a900473ffffffffffffffffffffffffffffffffffffffff16604051808273ffffffffffffffffffffffffffffffffffffffff1673ffffffffffffffffffffffffffffffffffffffff16815260200191505060405180910390a150565b6108a4610eb1565b15156108af57600080fd5b600081111515610927576040517f08c379a000000000000000000000000000000000000000000000000000000000815260040180806020018281038252601a8152602001807f53686172652070726963652063616e6e6f74206265207a65726f00000000000081525060200191505060405180910390fd5b683635c9adc5dea0000081026005819055507f9c5f2d2ec8b5bfd73c67b28cc62e367197fa61ddcb98e5eb8917a80096a58eef6005546040518082815260200191505060405180910390a150565b600160009054906101000a900473ffffffffffffffffffffffffffffffffffffffff1681565b6109a3610eb1565b15156109ae57600080fd5b600073ffffffffffffffffffffffffffffffffffffffff168173ffffffffffffffffffffffffffffffffffffffff1614151515610a53576040517f08c379a000000000000000000000000000000000000000000000000000000000815260040180806020018281038252601a8152602001807f4e6f7420612076616c6964207061792d696e206164647265737300000000000081525060200191505060405180910390fd5b80600260006101000a81548173ffffffffffffffffffffffffffffffffffffffff021916908373ffffffffffffffffffffffffffffffffffffffff1602179055507f2c4b01f4e02b2408f690656ce8b72e29873c79c801ca7610d78a6d01b153877c600260009054906101000a900473ffffffffffffffffffffffffffffffffffffffff16604051808273ffffffffffffffffffffffffffffffffffffffff1673ffffffffffffffffffffffffffffffffffffffff16815260200191505060405180910390a150565b600360009054906101000a900473ffffffffffffffffffffffffffffffffffffffff1681565b610b4a610eb1565b1515610b5557600080fd5b600073ffffffffffffffffffffffffffffffffffffffff168173ffffffffffffffffffffffffffffffffffffffff1614151515610bfa576040517f08c379a000000000000000000000000000000000000000000000000000000000815260040180806020018281038252601a8152602001807f4e6f7420612076616c696420737570706c79206164647265737300000000000081525060200191505060405180910390fd5b80600460006101000a81548173ffffffffffffffffffffffffffffffffffffffff021916908373ffffffffffffffffffffffffffffffffffffffff1602179055507f271ec742c5eaf7b04ea1e68faddd8224dc647b84405d01704ca125ace13bb00b600460009054906101000a900473ffffffffffffffffffffffffffffffffffffffff16604051808273ffffffffffffffffffffffffffffffffffffffff1673ffffffffffffffffffffffffffffffffffffffff16815260200191505060405180910390a150565b600460009054906101000a900473ffffffffffffffffffffffffffffffffffffffff1681565b610cf1610eb1565b1515610cfc57600080fd5b600073ffffffffffffffffffffffffffffffffffffffff166000809054906101000a900473ffffffffffffffffffffffffffffffffffffffff1673ffffffffffffffffffffffffffffffffffffffff167f8be0079c531659141344cd1fd0a4f28419497f9722a3daafe3b4186f6b6457e060405160405180910390a360008060006101000a81548173ffffffffffffffffffffffffffffffffffffffff021916908373ffffffffffffffffffffffffffffffffffffffff160217905550565b600080600360009054906101000a900473ffffffffffffffffffffffffffffffffffffffff1690508073ffffffffffffffffffffffffffffffffffffffff16633a98ef396040518163ffffffff167c0100000000000000000000000000000000000000000000000000000000028152600401602060405180830381600087803b158015610e4757600080fd5b505af1158015610e5b573d6000803e3d6000fd5b505050506040513d6020811015610e7157600080fd5b810190808051906020019092919050505091505090565b60008060009054906101000a900473ffffffffffffffffffffffffffffffffffffffff16905090565b60008060009054906101000a900473ffffffffffffffffffffffffffffffffffffffff1673ffffffffffffffffffffffffffffffffffffffff163373ffffffffffffffffffffffffffffffffffffffff1614905090565b600260009054906101000a900473ffffffffffffffffffffffffffffffffffffffff1681565b600080600080600360009054906101000a900473ffffffffffffffffffffffffffffffffffffffff1692508273ffffffffffffffffffffffffffffffffffffffff1663dd62ed3e600460009054906101000a900473ffffffffffffffffffffffffffffffffffffffff16306040518363ffffffff167c0100000000000000000000000000000000000000000000000000000000028152600401808373ffffffffffffffffffffffffffffffffffffffff1673ffffffffffffffffffffffffffffffffffffffff1681526020018273ffffffffffffffffffffffffffffffffffffffff1673ffffffffffffffffffffffffffffffffffffffff16815260200192505050602060405180830381600087803b15801561104a57600080fd5b505af115801561105e573d6000803e3d6000fd5b505050506040513d602081101561107457600080fd5b810190808051906020019092919050505091508273ffffffffffffffffffffffffffffffffffffffff166370a08231600460009054906101000a900473ffffffffffffffffffffffffffffffffffffffff166040518263ffffffff167c0100000000000000000000000000000000000000000000000000000000028152600401808273ffffffffffffffffffffffffffffffffffffffff1673ffffffffffffffffffffffffffffffffffffffff168152602001915050602060405180830381600087803b15801561114457600080fd5b505af1158015611158573d6000803e3d6000fd5b505050506040513d602081101561116e57600080fd5b81019080805190602001909291905050509050808211151561119257819350611196565b8093505b50505090565b600080600360009054906101000a900473ffffffffffffffffffffffffffffffffffffffff1690508073ffffffffffffffffffffffffffffffffffffffff166318160ddd6040518163ffffffff167c0100000000000000000000000000000000000000000000000000000000028152600401602060405180830381600087803b15801561122857600080fd5b505af115801561123c573d6000803e3d6000fd5b505050506040513d602081101561125257600080fd5b810190808051906020019092919050505091505090565b600080600060055484029250600160009054906101000a900473ffffffffffffffffffffffffffffffffffffffff169150828273ffffffffffffffffffffffffffffffffffffffff166370a08231336040518263ffffffff167c0100000000000000000000000000000000000000000000000000000000028152600401808273ffffffffffffffffffffffffffffffffffffffff1673ffffffffffffffffffffffffffffffffffffffff168152602001915050602060405180830381600087803b15801561133657600080fd5b505af115801561134a573d6000803e3d6000fd5b505050506040513d602081101561136057600080fd5b8101908080519060200190929190505050101515156113e7576040517f08c379a00000000000000000000000000000000000000000000000000000000081526004018080602001828103825260198152602001807f584348462062616c616e636520696e73756666696369656e740000000000000081525060200191505060405180910390fd5b828273ffffffffffffffffffffffffffffffffffffffff1663dd62ed3e33306040518363ffffffff167c0100000000000000000000000000000000000000000000000000000000028152600401808373ffffffffffffffffffffffffffffffffffffffff1673ffffffffffffffffffffffffffffffffffffffff1681526020018273ffffffffffffffffffffffffffffffffffffffff1673ffffffffffffffffffffffffffffffffffffffff16815260200192505050602060405180830381600087803b1580156114b757600080fd5b505af11580156114cb573d6000803e3d6000fd5b505050506040513d60208110156114e157600080fd5b810190808051906020019092919050505010151515611568576040517f08c379a00000000000000000000000000000000000000000000000000000000081526004018080602001828103825260168152602001807f5061796d656e74206e6f7420617574686f72697a65640000000000000000000081525060200191505060405180910390fd5b83611571610f2e565b101515156115e7576040517f08c379a000000000000000000000000000000000000000000000000000000000815260040180806020018281038252601b8152602001807f4e6f7420656e6f7567682073686172657320617661696c61626c65000000000081525060200191505060405180910390fd5b8173ffffffffffffffffffffffffffffffffffffffff166323b872dd33600260009054906101000a900473ffffffffffffffffffffffffffffffffffffffff16866040518463ffffffff167c0100000000000000000000000000000000000000000000000000000000028152600401808473ffffffffffffffffffffffffffffffffffffffff1673ffffffffffffffffffffffffffffffffffffffff1681526020018373ffffffffffffffffffffffffffffffffffffffff1673ffffffffffffffffffffffffffffffffffffffff1681526020018281526020019350505050602060405180830381600087803b1580156116e057600080fd5b505af11580156116f4573d6000803e3d6000fd5b505050506040513d602081101561170a57600080fd5b810190808051906020019092919050505050600360009054906101000a900473ffffffffffffffffffffffffffffffffffffffff1690508073ffffffffffffffffffffffffffffffffffffffff166323b872dd600460009054906101000a900473ffffffffffffffffffffffffffffffffffffffff1633876040518463ffffffff167c0100000000000000000000000000000000000000000000000000000000028152600401808473ffffffffffffffffffffffffffffffffffffffff1673ffffffffffffffffffffffffffffffffffffffff1681526020018373ffffffffffffffffffffffffffffffffffffffff1673ffffffffffffffffffffffffffffffffffffffff1681526020018281526020019350505050602060405180830381600087803b15801561183a57600080fd5b505af115801561184e573d6000803e3d6000fd5b505050506040513d602081101561186457600080fd5b8101908080519060200190929190505050503373ffffffffffffffffffffffffffffffffffffffff167fed9df0cd7fea34a99cdbfa371d80f637c46eb0d99b800a082c6b0143e9e8093f856040518082815260200191505060405180910390a250505050565b60055481565b6118d8610eb1565b15156118e357600080fd5b6118ec816118ef565b50565b600073ffffffffffffffffffffffffffffffffffffffff168173ffffffffffffffffffffffffffffffffffffffff161415151561192b57600080fd5b8073ffffffffffffffffffffffffffffffffffffffff166000809054906101000a900473ffffffffffffffffffffffffffffffffffffffff1673ffffffffffffffffffffffffffffffffffffffff167f8be0079c531659141344cd1fd0a4f28419497f9722a3daafe3b4186f6b6457e060405160405180910390a3806000806101000a81548173ffffffffffffffffffffffffffffffffffffffff021916908373ffffffffffffffffffffffffffffffffffffffff160217905550505600a165627a7a72305820dcad2d0b96bb5fa3425ad43589be8bdd2583101f3fb67a8d2fcfbe7c18c59f3d0029",
  "source": "pragma solidity ^0.4.24;\n\nimport \"../node_modules/openzeppelin-solidity/contracts/ownership/Ownable.sol\";\n\ninterface AlethenaShares {\n    function totalSupply() external view returns (uint256);\n    function transferFrom(address _from, address _to, uint256 _value) external returns (bool success);\n    function totalShares() external view returns (uint256);\n    function allowance(address _owner, address _spender) external view returns (uint256);\n    function balanceOf(address _owner) external view returns (uint256 balance);\n}\n\ninterface XCHF{\n    function transferFrom(address _from, address _to, uint256 _value) external returns (bool success);\n    function balanceOf(address _owner) external view returns (uint256 balance);\n    function allowance(address _owner, address _spender) external view returns (uint256);\n}\n\ncontract ShareDispenser is Ownable {\n    address public XCHFContractAddress; \n    address public XCHFPayInAddress;\n    address public ALEQContractAddress;\n    address public ALEQSupplyAddress;\n\n    constructor(address initialXCHFContractAddress, address initialALEQContractAddress) public {\n        XCHFContractAddress = initialXCHFContractAddress;\n        ALEQContractAddress = initialALEQContractAddress;\n    }\n\n\n    uint256 public sharePriceInXCHF = 5;\n\n    \n    function setXCHFContractAddress(address newXCHFContractAddress) public onlyOwner() {\n        require(newXCHFContractAddress != 0x0000000000000000000000000000000000000000, \"XCHF does not reside at address 0x\");\n        XCHFContractAddress = newXCHFContractAddress;\n        emit XCHFContractAddressSet(XCHFContractAddress);\n    }\n\n    function setXCHFPayInAddress(address newXCHFPayInAddress) public onlyOwner() {\n        require(newXCHFPayInAddress != 0x0000000000000000000000000000000000000000, \"Not a valid pay-in address\");\n        XCHFPayInAddress = newXCHFPayInAddress;\n        emit XCHFPayInAddressSet(XCHFPayInAddress);\n    }\n\n    function setALEQContractAddress(address newALEQContractAddress) public onlyOwner() {\n        require(newALEQContractAddress != 0x0000000000000000000000000000000000000000, \"ALEQ does not reside at address 0x\");\n        ALEQContractAddress = newALEQContractAddress;\n        emit ALEQContractAddressSet(ALEQContractAddress);\n    }\n\n    function setALEQSupplyAddress(address newALEQSupplyAddress) public onlyOwner() {\n        require(newALEQSupplyAddress != 0x0000000000000000000000000000000000000000, \"Not a valid supply address\");\n        ALEQSupplyAddress = newALEQSupplyAddress;\n        emit ALEQSupplyAddressSet(ALEQSupplyAddress);\n    }\n\n    function setSharePrice(uint256 newSharePriceInRappen) public onlyOwner() {\n        require(newSharePriceInRappen > 0, \"Share price cannot be zero\");\n        sharePriceInXCHF = newSharePriceInRappen*10**21;\n        emit sharePriceInXCHFSet(sharePriceInXCHF);\n    }\n\n    function getAvailableSupply() public view returns(uint256) {\n        AlethenaShares a = AlethenaShares(ALEQContractAddress);\n        uint256 temp = a.allowance(ALEQSupplyAddress, address(this));\n        uint256 supply = a.balanceOf(ALEQSupplyAddress);\n\n        if (temp <= supply){\n            return temp;\n        }\n        else{\n            return supply;\n        }\n    }\n\n\n    function getTotalSupply() public view returns (uint256) {\n        AlethenaShares a = AlethenaShares(ALEQContractAddress);\n        return a.totalSupply();\n    }\n\n    function getTotalNumberOfShares() public view returns(uint256) {\n        AlethenaShares a = AlethenaShares(ALEQContractAddress);\n        return a.totalShares();\n    }\n\n    function buyShares(uint256 numberOfSharesToBuy) public {\n        uint256 priceInXCHF = numberOfSharesToBuy*sharePriceInXCHF;\n        XCHF xchf = XCHF(XCHFContractAddress);\n\n        //What checks need to be done?\n        require(xchf.balanceOf(msg.sender) >= priceInXCHF, \"XCHF balance insufficient\");\n        require(xchf.allowance(msg.sender, address(this)) >= priceInXCHF, \"Payment not authorized\");\n        require(getAvailableSupply() >= numberOfSharesToBuy, \"Not enough shares available\");\n        //Delegate Call first\n        //bytes memory callData = abi.encodeWithSignature(\"approve(address,uint256)\", address(this), priceInXCHF);\n        //testData = callData;\n        // abi.encodePacked(\n        //     fcnSig,\n        //     address(this), \n        //     priceInXCHF\n        // );\n\n        //XCHFContractAddress.delegatecall(callData);\n\n        //require(XCHFContractAddress.call(callData),\"Call did not go through\");\n\n        //Transfer XCHF to specified account\n        xchf.transferFrom(msg.sender, XCHFPayInAddress, priceInXCHF);\n\n        //Transfer ALEQ to specified account\n        AlethenaShares a = AlethenaShares(ALEQContractAddress);\n        a.transferFrom(ALEQSupplyAddress, msg.sender, numberOfSharesToBuy);\n        emit sharesPurchased(msg.sender, numberOfSharesToBuy);\n    }\n\n\n    event XCHFContractAddressSet(address newXCHFContractAddress);\n    event ALEQContractAddressSet(address newALEQContractAddress);\n    event XCHFPayInAddressSet(address newXCHFPayInAddress);\n    event ALEQSupplyAddressSet(address newALEQSupplyAddress);\n    event sharesPurchased(address indexed buyer, uint256 amount);\n    event sharePriceInXCHFSet(uint256 newSharePriceInXCHF);\n\n    // Function to give back foreign tokens?\n    // FALLBACK FUNCTION not implemented. Contract will not accept Ether.\n    // Pausable function\n\n}",
  "sourcePath": "/home/benjamin/Documents/GitHub/Ethereum/share-dispenser/share-dispenser/contracts/ShareDispenser.sol",
  "compiler": {
    "name": "solc",
    "version": "0.4.24+commit.e67f0147.Emscripten.clang"
  },
  "schemaVersion": "2.0.1",
  "updatedAt": "2018-12-04T14:32:24.788Z"
}